:03000B00022E6E54
:102E6E00C0E0C0F0C083C082C0D075D000C000C02A
:102E7E0001C002C003C004C005C006C007C28D75E4
:102E8E008AD3758CFE900248E0D394004003E01480
:102E9E00F0900248E07006E50EF0121F37D3900254
:102EAE0006E09400900205E09400400CA3E024FF9D
:102EBE00F0900205E034FFF0D3E5109400E50F9496
:102ECE00004008E51015107002150FD3E50B9400A5
:102EDE00E50A94004008E50B150B7002150AE51083
:102EEE00450F7005F50F751064C28D758AD3758CFC
:102EFE00FED007D006D005D004D003D002D001D02A
:0C2F0E0000D0D0D082D083D0F0D0E032D0
:0800030012347412002680FE85
:0435000049442D000D
:0A2BDF008B218A2289238C248D2586
:102BE900E4F526F527F52AF52BF52CF52DE52545F0
:102BF9002470097430122A07E4FEFF22AF25AE249F
:102C0900C3E52494005019752C00752D01C3E49572
:102C190025F525E49524F524052BE52B7002052AD5
:102C2900EF4E6011052BE52B7002052A7C007D0A09
:102C3900122AA280EBE4F526F527C3E527952BE5B3
:102C49002A6480F8E526648098504CAE24AF257C30
:102C5900007D0A122A4D8C288D29AE24AF257C00CF
:102C69007D0A122A4D8E248F25E5292430FFE52778
:102C79002401FDE43526FCC3E52B9DFDE52A9CAB2B
:102C890021AA22A9238D82F583EF122A190527E5A6
:102C99002770A7052680A3E52D452C600BAB21AA3B
:102CA90022A923742D122A07AB21AA22A923852B35
:0C2CB90082852A83E4122A19AE2AAF2B70
:012CC50022EC
:1030BF00E4F521F5221229C16038AE21AF227C0040
:1030CF007D0A122A3B8E218F221229C1FFD3942F02
:1030DF004017EF943A5012EF24D0FFE434FFFEEF85
:1030EF002522F522EE3521F521740129F9E43AFA6A
:0630FF0080C3AE21AF22E8
:0131050022A7
:1034E70043C408E5C430E4FB85C61E85C51F53C425
:0834F700EFE51E540FFEAF1FAC
:0134FF0022AA
:023236008D21E8
:10323800E490029EF0A3F0C390029FE095219002D3
:103248009EE09400501AE4122A070429F9E43AFA95
:1032580090029FE004F070DF90029EE004F080D7B7
:013268002243
:1034B000D2B2C2B3C2B4D2B5C294C2F9D2A4D28736
:0D34C000D290D281D2F8D285D2A4D2A62219
:1000260090024A7401F0C2EF121917E4FF12301B56
:10003600900212E0FF123492900207E06003020180
:1000460097900236E06401703A7BFF7A3579007545
:100056002807FDFC7F02FE1225F07B017A02791645
:1000660090020EE0FD7C00122BDF7B017A027916EE
:10007600752807E4FDFC7F19FE1225F0E4FB7D0ED2
:10008600020195900236E06402703D7BFF7A357975
:10009600007528077D10FC7F02FE1225F07B017A91
:1000A60002791690020EE0FD7C00122BDF7B017AAE
:1000B6000279167528077D107C007F197E001225AF
:1000C600F0E4FB7D1E020195900236E06403703D6C
:1000D6007BFF7A3579007528077D20FC7F02FE12AA
:1000E60025F07B017A02791690020EE0FD7C001263
:1000F6002BDF7B017A0279167528077D207C007F2D
:10010600197E001225F0E4FB7D2E0201C89002360E
:10011600E06404703C7BFF7A3579007528077D30F2
:10012600FC7F02FE1225F07B017A02791690020E00
:10013600E0FD7C00122BDF7B017A02791675280719
:100146007D307C007F197E001225F0E4FB7D3E8029
:100156003E9002367401F07BFF7A357900752807E8
:10016600E4FDFC7F02FE1225F07B017A02791690EF
:10017600020EE0FD7C00122BDF7B017A02791675F8
:100186002807E4FDFC7F19FE1225F0E4FB7D0E80B6
:1001960031900207E0B4081E900234E0FEA3E0FFAF
:1001A600900214E0FCA3E0FD7B017A027938752801
:1001B600051225F08067900207E0FBC39404500AFD
:1001C600E4FDFCFFFE12219E8053900207E0B4047A
:1001D6000D7BFF7A1779ADE4FDFCFF020D1B900243
:1001E60007E0B4050E7BFF7A177967E4FDFC7F20F4
:1001F600020D1B900207E0B4060E7BFF7A177921E9
:10020600E4FDFC7F20020D1B900207E0B4070E7B85
:10021600FF7A1679DBE4FDFC7F20020D1BE55BD33C
:1002260094005003020C5BD3900206E09400900207
:1002360005E0940050F1E4900002F0D20190024CE7
:10024600E0647C60030207A4A3E064436003020742
:10025600A4A3E0647C60030207A49002037403F085
:100266007B017A0279167D14123236900203E0FF82
:10027600244CF582E43402F583E0FE647C601DEFD5
:10028600C394055017900203E02413F582E4340268
:10029600F583EEF0900203E004F080CF900203E0D5
:1002A600C3940550107B017A0279161230BF900272
:1002B6000FEFF080069000027401F0900002E060FB
:1002C60003020C4290020EE0FF90020FE06F600303
:1002D600020C42900203E0FF244CF582E43402F55E
:1002E60083E0B47C22744D2FF582E43402F583E07A
:1002F600B43614900203E0244EF582E43402F5830A
:10030600E0B47C03020C3D900203E0FF244CF5822E
:10031600E43402F583E0647C600302053F744D2FEC
:10032600F582E43402F583E06434600302053F900D
:100336000203E0244EF582E43402F583E0647C6037
:100346000302053F9002037409F0900211F07B014D
:100356007A0279167D08123236900203E0FF244CA9
:10036600F582E43402F583E0F9642D6035900211DC
:10037600E0FE2403FDE433FCEFC39DEC6480F874D7
:100386008098501EEEFDC3EF9DFFE49400FE7416A8
:100396002FF58274023EF583E9F0900203E004F043
:1003A60080B7900211E02403FFE433FE900203E0DD
:1003B600FDC39FEE6480F8748098502074162DF566
:1003C60082E43402F583740AF07B017A027916120C
:1003D60030BF90020CEEF0A3EFF08006900002749E
:1003E60001F0900002E06003020C42900203E00478
:1003F600F0E0900211F07B017A0279167D08123244
:1004060036900203E0FF244CF582E43402F583E0E3
:10041600F9642D6035900211E0FE2403FDE433FCFF
:10042600EFC39DEC6480F8748098501EEEFDC3EF18
:100436009DFFE49400FE74162FF58274023EF58348
:10044600E9F0900203E004F080B7900211E0240383
:10045600FFE433FE900203E0FDC39FEE6480F87470
:100466008098501F74162DF582E43402F583E4F06B
:100476007B017A0279161230BF90020AEEF0A3EFE2
:10048600F080069000027401F0900002E060030222
:100496000C42900203E004F0E0900211F07B017A36
:1004A6000279167D1E123236900203E0FF244CF5C7
:1004B60082E43402F583E0F9647C6035900211E051
:1004C600FE241CFDE433FCEFC39DEC6480F87480CD
:1004D60098501EEEFDC3EF9DFFE49400FE74162FA8
:1004E600F58274023EF583E9F0900203E004F080A1
:1004F600B7900211E0241CFFE433FE900203E0FDF6
:10050600C39FEE6480F87480984003020C42741610
:100516002DF582E43402F583E4F090020CE0FEA3AC
:10052600E0FF90020AE0FCA3E0FD7B017A02791667
:100536007528051225F0020C42900203E0FF244CB8
:10054600F582E43402F583E0647C6003020C4274B5
:100556004D2FF582E43402F583E064386003020C23
:1005660042900203E0244EF582E43402F583E0640F
:100576007C6003020C429002037409F0900211F0B1
:100586007B017A0279167D1E123236900203E0FF55
:10059600244CF582E43402F583E0F9642D6035904D
:1005A6000211E0FE2403FDE433FCEFC39DEC6480FE
:1005B600F8748098501EEEFDC3EF9DFFE49400FE94
:1005C60074162FF58274023EF583E9F0900203E07B
:1005D60004F080B7900211E02403FFE433FE90029A
:1005E60003E0FDC39FEE6480F87480985020741673
:1005F6002DF582E43402F583740AF07B017A0279E0
:10060600161230BF900234EEF0A3EFF08006900091
:10061600027401F0900002E06003020C42900203B3
:10062600E004F0E0900211F07B017A0279167D1E5B
:10063600123236900203E0FF244CF582E43402F5D0
:1006460083E0F9642D6035900211E0FE2403FDE499
:1006560033FCEFC39DEC6480F8748098501EEEFD69
:10066600C3EF9DFFE49400FE74162FF58274023EDC
:10067600F583E9F0900203E004F080B7900211E000
:100686002403FFE433FE900203E0FDC39FEE648083
:10069600F8748098501F74162DF582E43402F583A1
:1006A600E4F07B017A0279161230BF900214EEF064
:1006B600A3EFF080069000027401F0900002E06063
:1006C60003020C42900203E004F0E0900211F07B7A
:1006D600017A0279167D1E123236900203E0FF245B
:1006E6004CF582E43402F583E0F9647C60359002CF
:1006F60011E0FE241CFDE433FCEFC39DEC6480F89E
:10070600748098501EEEFDC3EF9DFFE49400FE74C6
:10071600162FF58274023EF583E9F0900203E00499
:10072600F080B7900211E0241CFFE433FE90020330
:10073600E0FDC39FEE6480F87480984003020C428B
:1007460074162DF582E43402F583E4F0900211F07C
:10075600900211E0FF2416F582E43402F583E0FEF0
:1007660074382FF582E43402F583EEF0900211E03E
:1007760004F0E0B40FDA900234E0FEA3E0FF90024A
:1007860014E0FCA3E0FD7B017A0279387528051296
:1007960025F01228919002077408F0020C4290028C
:1007A6004CE0647C7069A3E064537063A3E0647CEE
:1007B600705D9002037403F07B017A0279167D1E48
:1007C600123236900203E0FF244CF582E43402F53F
:1007D60083E0FE6445601DEFC39406501790020344
:1007E600E02413F582E43402F583EEF0900203E090
:1007F60004F080CF900203E0C394064003020D226A
:100806007B017A0279161230BF90020E020AB59069
:10081600024CE0647C7068A3E064447062A3E06408
:100826007C705C9002037403F07B017A0279167D7A
:100836001E123236900203E0FF244CF582E43402A5
:10084600F583E0FE6445601DEFC3940650179002E1
:1008560003E02413F582E43402F583EEF0900203FC
:10086600E004F080CF900203E0C394064003020D3B
:10087600227B017A0279161230BF8F0E020C2C9061
:10088600024CE0647C7068A3E0644E7062A3E0648E
:100896007C705C9002037403F07B017A0279167D0A
:1008A60008123236900203E0FF244CF582E434024B
:1008B600F583E0FE6445601DEFC394065017900271
:1008C60003E02413F582E43402F583EEF09002038C
:1008D600E004F080CF900203E0C394064003020DCB
:1008E600227B017A0279161230BF8F12020C2C90ED
:1008F600024CE0647C7069A3E064467063A3E06424
:100906007C705D9002037403F07B017A0279167D98
:1009160008123236900203E0FF244CF582E43402DA
:10092600F583E0FE6445601DEFC394065017900200
:1009360003E02413F582E43402F583EEF09002031B
:10094600E004F080CF900203E0C394064003020D5A
:10095600227B017A0279161230BF90024B020AB549
:1009660090024CE0647C7069A3E064417063A3E08C
:10097600647C705D9002037403F07B017A02791641
:100986007D08123236900203E0FF244CF582E434EF
:1009960002F583E0FE6445601DEFC3940650179090
:1009A6000203E02413F582E43402F583EEF09002AC
:1009B60003E004F080CF900203E0C39406400302F4
:1009C6000D227B017A0279161230BF900247020A85
:1009D600B590024CE0647C7068A3E0644C7062A33E
:1009E600E0647C705C9002037403F07B017A027908
:1009F600167D08123236900203E0FF244CF582E49D
:100A06003402F583E0FE6445601DEFC3940650177B
:100A1600900203E02413F582E43402F583EEF090AD
:100A26000203E004F080CF900203E0C39406400383
:100A3600020D227B017A0279161230BF90023780AE
:100A46006E90024CE0647C706BA3E064497065A311
:100A5600E0647C705F9002037403F07B017A027994
:100A6600167D08123236900203E0FF244CF582E42C
:100A76003402F583E0FE6445601DEFC3940650170B
:100A8600900203E02413F582E43402F583EEF0903D
:100A96000203E004F080CF900203E0C39406400313
:100AA600020D227B017A0279161230BF900236EFD0
:100AB600F0020C2C90024CE0647C6003020B94A3C1
:100AC600E0644D6003020B94A3E0647C6003020BB8
:100AD600949002037403F07B017A0279167D081262
:100AE6003236900203E0FF244CF582E43402F583AB
:100AF600E0FE6445601DEFC394065017900203E0C4
:100B06002413F582E43402F583EEF0900203E00448
:100B1600F080CF900203E0C394064003020D227BCF
:100B2600017A0279161230BF900207EFF01228916F
:100B3600900207E0FBC39404500BE4FDFCFFFE1299
:100B4600219E020C42900207E0B404087BFF7A174C
:100B560079AD801C900207E0B405087BFF7A17790F
:100B660067800D900207E0B406097BFF7A177921AA
:100B7600E48011900207E064076003020C427BFFE9
:100B86007A1679DBFDFCFFFE122AE4020C42900283
:100B96004CE0647C6003020C31A3E0645060030205
:100BA6000C31A3E0647C6003020C319002037403F1
:100BB600F07B017A0279167D08123236900203E044
:100BC600FF244CF582E43402F583E0FE6445601DA3
:100BD600EFC394065017900203E02413F582E43421
:100BE60002F583EEF0900203E004F080CF9002035A
:100BF600E0C394064003020D22900216E0B44707B4
:100C06009002127447801A900216E0B452079002BE
:100C1600127452800C900216E0B4420A90021274CA
:100C260042F0FF123492122891801190024CE0B4E7
:100C3600AA0AA3E0B45505E4FF12301B7B017A0231
:100C460079167D141232367A02794C7D321232369A
:100C5600E4F55BC201E50B450A6003020223750A4F
:100C660003750BE8E51164017057F511900207E072
:100C7600B4040E7BFF7A1779ADE4FDFC7F20020DEC
:100C86001B900207E0B4050E7BFF7A177967E4FD37
:100C9600FC7F20020D1B900207E0B4060D7BFF7A55
:100CA600177921E4FDFC7F20806B900207E0640742
:100CB60060030202237BFF7A1679DBFDFC7F20802E
:100CC60054751101900207E0B4040D7BFF7A177981
:100CD600F3E4FDFC7F20803D900207E0B4050D7B28
:100CE600FF7A187939E4FDFC7F208029900207E01D
:100CF600B4060D7BFF7A1779F3E4FDFC7F2080159F
:100D0600900207E0640760030202237BFF7A1779EB
:0D0D1600F3FDFC7F20FE122AE402022322DE
:0734CD007FC81234D47FC850
:1034D400EF600F0000000000000000000000001F6B
:0334E40080EE2255
:10345600AD07AC06ED4C601543E1101234CD1234C5
:0E346600CD7FC81234D4ED1D70EA1C80E72221
:1033A500E58954FC4401F58943A40153A3FB5389E2
:1033B500FB5389F775AC0653A4EFE4F5AC758A0B9E
:0633C500758CFED28C2283
:03350800D2A92223
:10314D004391115392EE53B1C143B23E4393A275D5
:10315D00AC0453925DE4F5AC75AC0143B50375ACAD
:10316D00035392FCF5AC43955075AC015392AFF5FA
:10317D00AC43B3C075AC0253923FF5AC43B10143C0
:03318D00B201226A
:1032F600A2AF920475E780E4F5E375E44C75E50545
:1033060075E64675E6B900AFE25307FE8FE275E54E
:0C3316000475E64675E6B900F5E7F5E53C
:013322002288
:10332300A2AF920775E780E4F5E375E44C75E50514
:1033330075E64675E6B900AFE25307FD8FE275E522
:0C3343000475E64675E6B900F5E7F5E50F
:01334F00225B
:1033CB00A2AF9205C2AFE4F5E38FE48DE275E5049D
:1033DB0075E78075E64675E6B900F5E5F5E7A205F4
:0233EB0092AF9F
:0133ED0022BD
:1031CE0043C480E5C3541F4440F5C375AC0453C3D8
:1031DE00CFE4F5AC53C3FC75AC0353C3F3F5AC436A
:1031EE00C31053C3F7E5C454D84403F5C47D807FA0
:0431FE00450233CB88
:1033EE0075C7D07F641234D475E780E4F5E375E4D5
:1033FE004075E50475E21C75E64675E6B900F5E51F
:03340E00F5E722BD
:1032C800439C01539CEFC29FD29E75AC0753A4F751
:1032D800E4F5AC53A4F7D29C43B93053877F539C91
:0E32E800BF43B940759A70759B7043B9802240
:103474001233EE1233237F057E0012345612314D7F
:0E3484001233A51232C8123508D2ACD2AF22D4
:100D2300000000000000008001C003E007F00FF89E
:100D33001FFC3FFE7FFF07F007F007F000000000F5
:100D4300070707077F7F7F7F7F7F7F7F0707070770
:100D53000080C0E0F0F8FCFEFFFEFCF8F0E0C0808D
:100D63000103070F1F3F7FFF7F3F1F0F0703010093
:100D7300E0E0E0E0FEFEFEFEFEFEFEFEE0E0E0E080
:100D8300000F0F0F0FFFFFFF7F3F1F0F0703010030
:100D930000F0F0F0F0FFFFFFFFFEFCF8F0E0C08092
:100DA30000387C6CC6C6C6C6C6C6C6C66C7C3800D0
:100DB300003030383C3632303030303030FEFE00D8
:100DC30000387CC6C6C0C0E0607030381CFEFE0030
:100DD30000387CCEC6C07070C0C0C0C6EE7C380080
:100DE3000060707078786C6E6663FFFF606060000F
:100DF30000FEFE0606063E7EE6E0E0E0E67E3C0000
:100E030000387CCCC6063E7EE6C6C6C6CC7C38001F
:100E130000FEFEC06060303030301818181818001B
:100E2300007CFEC6C6C67C7CEEC6C6C6EE7C380019
:100E330000387C66C6C6C6EEFCF8C0C6667C3800C1
:100E43000018183C7E66E7C3C3C3FFFFC3C3C300D8
:100E5300003F7FE3C3C3E37F7FE3C3C3E37F3F007D
:100E6300003C7EE7C3C303030303C3C3E77E3C0025
:100E7300003F7FE3C3C3C3C3C3C3C3C3E37F3F0015
:100E830000FFFF03030303FFFF03030303FFFF004D
:100E930000FFFF03030303FFFF0303030303030035
:100EA300003C7EE7C3C30303F3F3C3C3E77E3C0005
:100EB30000C3C3C3C3C3C3FFFFC3C3C3C3C3C3000D
:100EC30000FFFF18181818181818181818FFFF0033
:100ED30000C0C0C0C0C0C0C0C0C0C3C3E77E3C0028
:100EE3000083C3E3733B1F0F0F1F3B73E3C38300F5
:100EF30000030303030303030303030303FFFF00CD
:100F03000081C3E7FFFFDBC3C3C3C3C3C3C3C300C2
:100F130000C3C3C3C7CFDFFBF3E3C3C3C3C3C30070
:100F2300003C7EE7C3C3C3C3C3C3C3C3E77E3C0064
:100F3300003F7FE3C3C3C3E37F3F03030303030014
:100F4300003C7EE7C3C3C3C3CBDBF3677EDC800017
:100F5300003F7FE3C3C3E3733F1F3B73E3C38300DC
:100F6300003C7EE7C303073E7CE0C0C3E77E3C0052
:100F730000FFFF1818181818181818181818180050
:100F830000C3C3C3C3C3C3C3C3C3C3C3E77E3C005C
:100F930000C3C3C3C3C3C3E7666666663C3C1800AD
:100FA30000C3C3C3C3C3C3C3DBDBFFFFE7C381000A
:100FB30000C3C366663C3C183C3C666666C3C3001C
:100FC30000C3C366663C3C18181818181818180094
:100FD30000FFFFC060603018180C0E0603FFFF000F
:100FE30000000000000000000000000000000000FE
:100FF300000000000000007E7E7E00000000000074
:10100300207088888888F8888888F0888888F0F035
:10101300888888F070888880808080888870E05015
:1010230048484848484850E0F8808080F0F0808085
:1010330080F8F8808080F0F08080808070888880DD
:1010430080B08888887088888888F8F88888888835
:10105300F82020202020202020F808000808080875
:1010630088888870808890A0C0C0A0908880808085
:1010730080808080808080F888D8A8A88888888825
:10108300888888C8C8A8A8A8A898988870888888D5
:10109300888888888870F0888888F080808080803D
:1010A30070888888888888A89068F088888890E005
:1010B300A090888870888880402010888870F820E5
:1010C30020202020202020208888888888888888DD
:1010D300887088888888888888505020888888887D
:1010E3008888A8A85050888850502020505088885D
:1010F30088888850507020202020F8081010202065
:10110300404080F8000000000000000000000000E4
:1011130000007070000000007050888888888888FC
:1011230050702060A0202020202020F8708888089C
:101133000810204080F8F8102040E0100808906064
:1011430010303050509090F81010F88080E0100864
:10115300080890607088808080F088888870F00824
:1011630008101010102020207088888870888888C4
:10117300887070888888700808088870080F0001D4
:101183000000000001010000010100010100000155
:1011930001000101000001010001010010F09000B5
:1011A300F01000E01010E00000E01010F01090507C
:1011B300600000826C30C0009050600000000000AE
:1011C300000000000000000000000000000000001C
:1011D30000000000C0181EC6F80CF301C0183FC67B
:1011E300FC99F903C01873C68C991903C09861C69A
:1011F3008CF11803C09F61C63CF07800C09F61C6A4
:10120300F860F001C09861C6C0618003C09861C6F0
:101213008C611803C01833C68C611803C0183FFCD7
:10122300FC61F803C0181E38F860F00100000000EC
:1012330000000000000000000000000000000000AB
:10124300000000000000000000000000000000009B
:1012530000000000C6F030C6E71F0F63C6F831E692
:10126300EF9F1F67C69833660C833967C60C3366D6
:101273000CC33067FE0C33E601C3306FFE0C33C67C
:1012830007C3306BC60C33060EC3307BC60C336604
:101293000CC3307BC69831660C831973C6F8E1E73B
:1012A3000F831F73C6F0C0C107030F630000000064
:1012B300000000000000000000000000000000002B
:1012C3000000000000060909080C00080C0A010AC6
:1012D3000C0800060909080C000C08080F08080C84
:1012E300080F09090B080C00080F0C0300030C0F6F
:1012F30008000000000000000000000000000000E3
:101303000000000000301010906000000010F0108A
:10131300000000301010906000000010F01000007A
:1013230010F010109010300010F010C030C010F00A
:10133300100000000000000000000000000000009A
:101343000000080F09090906000000030C03000050
:1013530000080F090909060000080F09010A0C0813
:10136300000000080F0800080F0C03080F08000313
:10137300040808080C000000000000000000000042
:10138300000010F010000000001030D04040D030BA
:101393001010F010008070100010F010008050301A
:1013A30010000010F0100010F0108060F00000C07A
:1013B30020101090E080000000000000DF71DF8744
:1013C300E79BF1CCC371C3CC6C9899CDC37BC36C41
:1013D30060B80D48DF7BDF6CE0BB0D78C36AC36781
:1013E3006ED80D30C36EC3666CD80D30C36EC3CCDC
:1013F3006C989931DF64DF98E79BF13000000000BF
:10140300000000000000F88D313F0000000018D8F4
:10141300303F000000001870000C00000000F8705E
:10142300300C0000000018D8300C00000000188CAD
:10143300310C00000000F805310C00000000000032
:101443000000000000000000000000000000000099
:1014530000000000FF0C33FFFC33CCFEFF9C33FF86
:10146300FC73CEFE039801180C60063003F03018AD
:101473000CC0C330FFF03018FCC3C330FF6030181A
:10148300FC83C13003F030180CC0C33003F03018B4
:101493000CC0C330039831180C60C630FF9C33185E
:1014A300FC73CE30FF0C3318FC33CC30000000004B
:1014B30000000000000000000000000000013D00EB
:1014C3000F0007C00FC00FC07FC01FF03FF03FF0F9
:1014D3007FE03FF87FF87FF87FF0783C7878787882
:1014E3007070F018F03CF03C7078E000E01CE01CF9
:1014F3007038E000E01CE01C7038E1FCE01CE01CEC
:101503007038E1FCE01CE01C7038E1FCE01CE01CDE
:101513007038701CF03CF03C7038783C7878787800
:1015230070703FFC7FF87FF87FF01FF83FF03FF0CB
:101533007FE007C00FC00FC07F8000014000100094
:101543000001FFE781E71FFF0601FFE3C3C71FFF9A
:101553000E01FFE1C7871FFF1E01C001E70700E07F
:101563001FF1C000FF0700E03FF1C0007E0700E06D
:101573007FF1FFC07C0700E0FFF1FFC03C0700E004
:10158300FFF1FFC07C0700E07FF1C0007E0700E0B1
:101593007FF1C000FF0700E03FF1C001E70700E073
:1015A3001FF1C003C78700E00E01FFE3C3C700E0DC
:1015B3000E01FFE781E700E00601FFE700E700E037
:1015C300000120001000000000000000000000FBEC
:1015D3001B7E00FB1B7E08C3181818C1B0183EC140
:1015E300F3187EF0E3187EF0E3183EC1B31818C178
:1015F300B31808C31B1800FB1B1800FB1B180000C3
:1016030000000000000000012000100000000000A6
:101613000000000000FB1B7E00FB1B7E10C318189C
:1016230018C1B0187CC1F3187EF0E3187EF0E318FC
:101633007CC1B31818C1B31810C31B1800FB1B18C7
:1016430000FB1B1800000000000000000001200048
:101653001000000000000000000000FB1B7E00FBE8
:101663001B7E00C3181810C1B01838C1F3187CF0E2
:10167300E318FEF0E31838C1B31838C1B31800C338
:101683001B1800FB1B1800FB1B18000000000000C8
:101693000000000120001000000000000000000016
:1016A30000FB1B7E00FB1B7E00C3181838C1B0185B
:1016B30038C1F318FEF0E3187CF0E31838C1B3180F
:1016C30010C1B31800C31B1800FB1B1800FB1B1829
:1016D30000000000000000000001200010000000D6
:1016E300000000000000003E8BBE3E2089083E2023
:1016F30089083E2051083E205108FFBC21087F2065
:1017030051083E2051081C20890808208908003E02
:101713008B880000000000000000000000000001B2
:10172300200010000000000000000000003E8BBEFF
:10173300082089081C2089083E2051087F20510871
:10174300FFBC21083E2051083E2051083E20890855
:101753003E208908003E8B88000000000000000046
:101763000000000000012000100000000000000045
:1017730000007D177C00411210104112101840A286
:1017830011FC40A211FE784211FF40A211FE40A2BB
:1017930011FC41121018411210107D1710000000A7
:1017A3000000000000000000000000012000100005
:1017B3000000000000000000003E8BBE08208908E6
:1017C300182089083FA051087FA05108FFBC2108B9
:1017D3007FA051083FA051081820890808208908D4
:1017E300003E8B88000000000000000000000000A5
:1017F3000001200010000000000000000000003E77
:101803008BBE002089080020890800205108002091
:101813005108003C210800205108002051080020F5
:10182300890800208908003E8B8800000000000022
:101833000000000000000001200010000000000074
:10184300000000007D177C004112100041121000BF
:1018530040A2100040A210007842100040A21000E5
:1018630040A2100041121000411210007D17100019
:101873000000000000000000000000000001100054
:1018830010000000008001C003E007F00FF81FFC08
:101893003FFE7FFF7FFF7FFF07F007F007F00000A9
:1018A30000000001100010000700078007C007E0D8
:1018B3003FF03FF83FFC3FFE3FFC3FF83FF007E0BF
:1018C30007C007800700000000011000100000702F
:1018D30000F001F003F007FE0FFE1FFE3FFE1FFEA8
:1018E3000FFE07FE03F001F000F00070000000019E
:1018F300100010000000000007F007F007F07FFF62
:101903007FFF7FFF3FFE1FFC0FF807F003E001C0DE
:041913000080000050
:10343400011D00011C00011700021A000002130004
:0534440000021500006C
:0435040043E110226D
:0C344900015B00015D00015C00015E0001
:03002300022FA603
:102FA600C0E0C083C082C0D0C0AC75AC00309927E9
:102FB600C299E55CB55E04C206801C747E255EF58A
:102FC60082E43402F583E0F599D206055EE55EC338
:102FD60094204003755E00309830C2983001088511
:102FE600995B755B008010744C255BF582E43402B6
:102FF600F583E599F0055B900205E4F0A37428F0EB
:10300600E55BC394324003755B00D0ACD0D0D08270
:05301600D083D0E03280
:1032020020060EE4F55E755C0190027EEFF0D29925
:1032120022AE5C747E2EF582E43402F583EFF00E6A
:10322200EEC394204002E4FEEE655E60FBC2AC8E0B
:033232005CD2ACBF
:013235002276
:10000E001229C1FF600C123202740129F9E43AFA86
:03001E0080EE224F
:063411008B5F8A608961F7
:10341700E4FCECC39D5015AB5FAA60A9618C827573
:0C34270083001229DAFF1232020C80E64A
:013433002276
:10337C00D2EF12341175624E7563207F641234D40F
:10338C00E56315637002156230060BD3E563940098
:08339C00E562940050EAC2EF63
:0133A4002206
:0D3299008F4C8D4D8B4EE54CD3954D40096B
:0932A600854C50854D4C85504DBE
:1032AF00E54CD3954D5011AF4C7E00AD4E7C00AB2D
:0932BF004F122745054C80E8225E
:042DA7008F648D6543
:102DAB00E49002B2F09002B2E0FFC394105052EBE9
:102DBB00C43354E02433F582E4340DF583E5822FDC
:102DCB00F582E43583F583E493FF75F080E564A425
:102DDB002403F582E5F03400F583C083C0829002B2
:102DEB00B2E0D082D08375F008122AD8E58225652F
:102DFB00F582E43583F583EFF09002B2E004F080C6
:102E0B00A4E49002B2F09002B2E0FFC394105052CF
:102E1B00EBC43354E02423F582E4340DF583E582CF
:102E2B002FF582E43583F583E493FF75F080E56439
:102E3B00A42404F582E5F03400F583C083C08290AE
:102E4B0002B2E0D082D08375F008122AD8E5822531
:102E5B0065F582E43583F583EFF09002B2E004F080
:022E6B0080A441
:012E6D002242
:0A2494008E518F528C538D548B55DE
:10249E00D3E5529440E551940040067551007552B3
:1024AE0040D3E5549430E5539400400675530075BF
:1024BE005430E49002AFF09002AFE0FFC3941040AE
:1024CE0003022557E555C43354E02433F582E43432
:1024DE000DF583E5822FF582E43583F583E4939041
:1024EE0002B1F0E49002B0F09002B0E0FFC39408A5
:1024FE00504EA3E030E01B7E00E5522FFFEE35512B
:10250E00FE9002AFE07C002554FDEC3553FC7B01C0
:10251E00801C9002B0E07E002552FFEE3551FE90F9
:10252E0002AFE07C002554FDEC3553FCE4FB122792
:10253E00459002B1E0C313F09002B0E004F080A821
:10254E009002AFE004F00224C5E49002AFF09002D6
:10255E00AFE0FFC3941040030225EFE555C433549A
:10256E00E02423F582E4340DF583E5822FF582E431
:10257E003583F583E4939002B1F09002B07408F0C5
:10258E009002B0E0FFC39410504EA3E030E01B7EEB
:10259E0000E5522FFFEE3551FE9002AFE07C002594
:1025AE0054FDEC3553FC7B01801C9002B0E07E00A4
:1025BE002552FFEE3551FE9002AFE07C002554FD12
:1025CE00EC3553FCE4FB1227459002B1E0C313F047
:1025DE009002B0E004F080A89002AFE004F0022573
:0125EE005C90
:0125EF0022C9
:02301B008F2103
:10301D00E490029EF0A3F0E49002A0F0A3F09002E1
:10302D00A0E0FCA3E0FDC39440EC9400501D900281
:10303D009EE0FEA3E0FFAB211227459002A1E00424
:10304D00F070DB9002A0E004F080D390029FE004CA
:10305D00F0700690029EE004F0C390029FE0944051
:08306D0090029EE0940040AFC8
:013075002238
:062745008E498F4A8B4B08
:10274B00D3ED940FEC94004017ECC4F854F0C86828
:10275B00FFEDC4540F489002A6CFF0A3EFF0800713
:10276B00E49002A6F0A3F0ED540FFF9002A8E4F062
:10277B00A3EFF0D3E54A9407E54994004018AE491E
:10278B00E54A7803CEC313CE13D8F99002ABF0EE23
:10279B009002AAF08007E49002AAF0A3F0E4900262
:1027AB00ACF0E54A5407A3F09002A8E0FEA3E07852
:1027BB0003C333CE33CED8F9FDAC069002A6E0FEB0
:1027CB00A3E07807C333CE33CED8F92403F5827454
:1027DB00003EF583E5822DF582E5833CF583C083CE
:1027EB00C0829002AAE0FEA3E0D082D0832582F5BE
:1027FB0082E5833EF583E09002AEF0E54BB4011524
:10280B00E0FF9002ACA3E0FEF87401088002C33332
:10281B00D8FC4F80179002AEE0FF9002ACA3E0FE15
:10282B00F87401088002C333D8FCF45F9002AEF059
:10283B009002AEE0FD9002A8E0FEA3E07803C33364
:10284B00CE33CED8F9FBAA069002A6E0FEA3E07821
:10285B0007C333CE33CED8F92403F58274003EF58B
:10286B0083E5822BF582E5833AF583C083C08290A2
:10287B0002AAE0FEA3E0D082D0832582F582E58315
:05288B003EF583EDF0B5
:012890002225
:04231B008F668D67D5
:10231F007440C39B506A745B9B4065E49002B3F0BA
:10232F009002B3E0FFC39410400302249375F010A2
:10233F00EBA42433F582E5F0340AF583E5822FF51B
:10234F0082E43583F583E493FF75F080E566A4247A
:10235F0003F582E5F03400F583C083C0829002B3A9
:10236F00E0D082D08375F008122AD8E5822567F570
:10237F0082E43583F583EFF09002B3E004F080A0A0
:10238F00742FC39B506A743A9B4065E49002B3F07C
:10239F009002B3E0FFC39410400302249375F01032
:1023AF00EBA424A3F582E5F0340AF583E5822FF53B
:1023BF0082E43583F583E493FF75F080E566A4240A
:1023CF0003F582E5F03400F583C083C0829002B339
:1023DF00E0D082D08375F008122AD8E5822567F500
:1023EF0082E43583F583EFF09002B3E004F080A030
:1023FF00EB6420704E9002B3F09002B3E0FFC394F1
:10240F00104003022493EF900FE393FF75F080E5E4
:10241F0066A42403F582E5F03400F583C083C082FF
:10242F009002B3E0D082D08375F008122AD8E582EB
:10243F002567F582E43583F583EFF09002B3E0046E
:10244F00F080B6EB642D703C9002B3F09002B3E0D5
:10245F00FF900FF393FE75F080E566A42403F582D9
:10246F00E5F03400F58375F008EF122AD8E58225E0
:10247F0067F582E43583F583EEF09002B3E004F064
:04248F00E0B410C8DD
:012493002226
:0A1CB3008E2D8F2E8C2F8D308B317B
:101CBD00D3E52E9440E52D94004006752D00752E2C
:101CCD0040D3E5309430E52F94004006752F007514
:101CDD0030307440C395314003021DA9745B9531BA
:101CED005003021DA9E53264076003021D929002A4
:101CFD009EF090029EE0FFC394104003021F3675C4
:101D0D00F010E531A42433F582E5F0340AF583E5CE
:101D1D00822FF582E43583F583E4939002A0F0E4FD
:101D2D0090029FF090029FE0FFC39408504EA3E0F5
:101D3D0030E01B7E00E52E2FFFEE352DFE90029E2E
:101D4D00E07C002530FDEC352FFC7B01801C9002E2
:101D5D009FE07E00252EFFEE352DFE90029EE07C4D
:101D6D00002530FDEC352FFCE4FB1227459002A039
:101D7D00E0C313F090029FE004F080A890029EE073
:101D8D0004F0021CFFE53264056003021F36E531E5
:101D9D0075F00AA42479F9740D021E70742FC39581
:101DAD00314003021E82743A95315003021E82E5C2
:101DBD003264076003021E5C90029EF090029EE06A
:101DCD00FFC394104003021F3675F010E531A424B3
:101DDD00A3F582E5F0340AF583E5822FF582E4352B
:101DED0083F583E4939002A0F0E490029FF09002BB
:101DFD009FE0FFC39408504EA3E030E01B7E00E54A
:101E0D002E2FFFEE352DFE90029EE07C002530FD3D
:101E1D00EC352FFC7B01801C90029FE07E00252E6F
:101E2D00FFEE352DFE90029EE07C002530FDEC3559
:101E3D002FFCE4FB1227459002A0E0C313F09002A3
:101E4D009FE004F080A890029EE004F0021DC9E519
:101E5D003264056003021F36E53175F00AA4243B98
:101E6D00F9740F35F0753BFFF53C893D75390075FB
:101E7D003A0A021F27E531642D6003021F36E53251
:101E8D0064076003021F1390029EF090029EE0FF14
:101E9D00C394104003021F36EF900FF3939002A0EE
:101EAD00F0E490029FF090029FE0FFC39408504E23
:101EBD00A3E030E01B7E00E52E2FFFEE352DFE90CA
:101ECD00029EE07C002530FDEC352FFC7B01801C53
:101EDD0090029FE07E00252EFFEE352DFE90029E96
:101EED00E07C002530FDEC352FFCE4FB12274590FE
:101EFD0002A0E0C313F090029FE004F080A89002CE
:101F0D009EE004F08085E532B4051E753900753A02
:101F1D000A753BFF753C11753D117B057A00AD309F
:091F2D00AC2FAF2EAE2D122CC614
:011F36002288
:0A219E008E218F228C238D24A903CB
:1021A800E490029EF0A3F0E49002A2F0A3F0900263
:1021B800A2E0FCA3E0FDC39408EC940040030222D3
:1021C800FAB9011E90029EE0FEA3E07803C333CE65
:1021D80033CED8F92DFFEC3EFE74BF2FF582741173
:1021E8008050B9022690029EE0FEA3E07803C33334
:1021F800CE33CED8F9FF9002A3E02FFF9002A2E0E1
:102208003EFE74BF2FF58274138027B90332900203
:102218009EE0FEA3E07803C333CE33CED8F9FF9017
:1022280002A3E02FFF9002A2E03EFE743F2FF5824A
:1022380074143EF583E493FF9002A4E4F0A3EFF056
:10224800E49002A0F0A3F09002A0E0FCA3E0FDC39C
:102258009408EC940040030222E99002A5E030E0E3
:102268002E9002A2E0FEA3E07803C333CE33CED88B
:10227800F9FF2522CFE5213ECF2DCF3CFE90029FCE
:10228800E02524FD90029EE03523FC7B01803390FD
:1022980002A2E0FEA3E07803C333CE33CED8F925FB
:1022A80022FFE5213EFE9002A1E02FFF9002A0E070
:1022B8003EFE90029FE02524FD90029EE03523FC1F
:1022C800E4FB1227459002A4E0C313F0A3E013F047
:1022D8009002A1E004F070069002A0E004F002224F
:1022E8004F9002A3E004F070069002A2E004F0020E
:1022F80021B690029FE004F0700690029EE004F080
:10230800C390029FE0941090029EE0940050030254
:0223180021AFF3
:01231A0022A0
:0E2AE4008E2D8F2E8C2F8D308B318A328933C0
:102AF200E4F5389000021229DA753B00F53C9000AB
:102B0200041229DA753D00F53EE53C2407FFE43561
:102B12003BFE7C007D08122AA28E398F3AE4F534FE
:102B2200F535C3E535953EE53D6480F8E5346480CE
:102B3200984003022BD4E4F536F537C3E537953CCC
:102B4200E53B6480F8E5366480985073E5375407B6
:102B52006008E53825E0F5388034AC39AD3AAE345A
:102B6200AF35122A3BAA06AB07AE36AF377C007DE3
:102B720008122AA2EB2FFFEA3ECF2406CF3400AB85
:102B820031AA32A9338F82F5831229DAF538E53872
:102B920030E70EE52E2537FFE52D3536FE7B018029
:102BA2000CE52E2537FFE52D3536FEE4FBAD30ACC6
:102BB2002F1227450537E53770020536022B3D05F2
:102BC20035E535700205340530E5307002052F0217
:0C2BD2002B24E53C252EFFE53B352DFEB5
:012BDE0022D4
:082CC6008E338F348C358D36FE
:102CCE00E4F5428A458B46853947853A48E54624E0
:102CDE0007FFE43545FE7C007D08122AA28E438F45
:102CEE0044E4F53EF53FC3E53F9548E5476480F87B
:102CFE00E53E6480984003022D9CE4F540F541C307
:102D0E00E5419546E5456480F8E540648098506B52
:102D1E00E54154076008E54225E0F542802DAC43BD
:102D2E00AD44AE3EAF3F122A3BAA06AB07AE40AF54
:102D3E00417C007D08122AA2EF2BF582EE3AF58334
:102D4E00AB3BAA3CA93D1229DAF542E54230E70E2B
:102D5E00E5342541FFE5333540FE7B01800CE5343B
:102D6E002541FFE5333540FEE4FBAD36AC35122789
:102D7E00450541E541708805408084053FE53F707B
:102D8E0002053E0536E53670020535022CF4E546A1
:082D9E002534FFE5453533FE45
:012DA600220A
:0A25F0008E218F228B258A26892771
:1025FA0090024BE07E002522F52AEE3521F5298C42
:10260A002B8D2CAB25AA26A9271229C170030227D4
:10261A004464236003022701042527F527E43526AD
:10262A00F526FAA9271229C1B47515900247E025A3
:10263A002AF52AE43529F5297BFF7A18797F806102
:10264A00AB25AA26A9271229C1B46415900247E02E
:10265A00252AF52AE43529F5297BFF7A1879F180AC
:10266A0040AB25AA26A9271229C1B46C15900247A6
:10267A00E0252AF52AE43529F5297BFF7A1879CB52
:10268A00801FAB25AA26A9271229C1B4722A900253
:10269A0047E0252AF52AE43529F5297BFF7A1879B6
:1026AA00A5AD2CAC2BAF2AFE122AE47410252AF50C
:1026BA002AE43529F5298031AB25AA26A92712292A
:1026CA00C1B447047F47801EAB25AA26A927122931
:1026DA00C1B452047F52800EAB25AA26A92712291B
:1026EA00C1B442057F4212349274012527F527E4CA
:1026FA003526F52602260DAB25AA26A9271229C1B9
:10270A00FB852832AD2CAC2BAF2AAE29121CB37430
:10271A00012527F527E43526F526E528B4070474AC
:10272A0009800BE5286405600302260D7406252A34
:0A273A00F52AE43529F52902260DE1
:012744002272
:0A3269008F568D578B588A59895AE9
:10327300E4FCAB58AA59A95A1229C1FB6017E557B8
:103283002CFDAF5612231B7401255AF55AE4355908
:05329300F5590C80DD7F
:013298002213
:10349200BF5207D203C200C20222BF4707C203D2F1
:0E34A20000C20222BF4206C203C200D20222B2
:10307600E4FFE4900209F0E4FE75F080EFA4240377
:10308600F582E5F03400F583C083C082900209E042
:10309600D082D08375F008122AD8E5822EF582E414
:1030A6003583F583E4F00EBE08CF900209E004F004
:0830B600E0B410C30FBF04BA1F
:0130BE0022EF
:101F3700E4900209F0D2A4D2A6900001E0700DC28D
:101F47008175AC01C2F8F5ACC285802E900001E026
:101F5700B40204C2818019900001E0B40109D28162
:101F670075AC01C2F8800E900001E0B4030CD28179
:101F770075AC01D2F8E4F5ACD285E4900249F0E4FF
:101F8700900209F0900209E0600302206A9002497A
:101F9700E0FF900000E075F080A42403F582E5F0EF
:101FA7003400F583C083C082900001E0D082D083E3
:101FB70075F008122AD8E5822FF582E43583F58378
:101FC700E0900213F0900249E0FF900000E075F006
:101FD70080A42443F582E5F03400F583C083C082F2
:101FE700900001E0D082D08375F008122AD8E582EC
:101FF7002FF582E43583F583E0900204F0E4900244
:1020070010F0900213E030E00EA20092B2A2039209
:10201700B3A20292B48006C2B2C2B3C2B4900204A1
:10202700E030E014A20092B575AC01A20292F9E487
:10203700F5ACA2039294800CC2B575AC01C2F9E469
:10204700F5ACC294900213E0C313F0C2909002045F
:10205700E0C313F0D290900210E004F0E0B408A2BD
:10206700022148900209E0640160030221489002BE
:1020770049E0FF900000E075F080A42423F582E595
:10208700F03400F583C083C082900001E0D082D095
:102097008375F008122AD8E5822FF582E43583F597
:1020A70083E0900213F0900249E0FF900000E07592
:1020B700F080A42463F582E5F03400F583C083C083
:1020C70082900001E0D082D08375F008122AD8E50B
:1020D700822FF582E43583F583E0900204F0E490E3
:1020E7000210F0900213E030E00EA20092B2A203B9
:1020F70092B3A20292B48006C2B2C2B3C2B4900233
:1021070004E030E014A20092B575AC01A20292F986
:10211700E4F5ACA2039294800CC2B575AC01C2F988
:10212700E4F5ACC294900213E0C313F0C29090029E
:1021370004E0C313F0D290900210E004F0E0B4087A
:10214700A2900209E004F0E064026003021F8B9092
:102157000249E004F0E064086003021F86C287D2E8
:1021670087900000E07004C2A48009900000E0B4EA
:102177000102C2A6900001E004F0E0D394034016E8
:10218700E4F0900000E004F0E0D3951240089002DC
:0721970037E0900000F02288
:10310600900234E4F0A3EFF0E0F8E4F0E890023443
:03311600F07F0C3B
:04311900AD07AC064C
:10311D00A2AF9207C2AF75E78075E5018CE38DE430
:10312D0075E64675E6B900000000000000000000DD
:0F313D0000000000E4F5E5F5E7A20792AFAFE26E
:01314C002260
:0A3190009002347F0CA3E0FD7E7670
:04319A00AB07AA06CF
:10319E00A2AF9207C2AF75E78075E5028AE38BE4B2
:1031AE008DE275E64675E6B90000000000000000ED
:0F31BE00000000000000E4F5E5F5E7A20792AF7E
:0131CD0022DF
:10335000A2AF9207C2AF75E78075E5038EE3E4F58F
:10336000E475E64675E6B9000000000000000000C4
:0B337000000000F5E5F5E7A20792AFB2
:01337B00222F
:10289100900207E0D3940A40037401F07F007E7632
:1028A1001233507DAA12319A7F0A7E00123456905B
:1028B100020EE0FD7F017E7612319A7F0A7E0012C0
:1028C1003456AD0E7F027E7612319A7F0A7E001257
:1028D100345690024BE0FD7F037E7612319A7F0AD7
:1028E1007E00123456900247E0FD7F047E7612315D
:1028F1009A7F0A7E00123456AD127F057E76123120
:102901009A7F0A7E00123456900237E0FD7F067EE0
:102911007612319A7F0A7E00123456900236E0FD1B
:102921007F077E7612319A7F0A7E0012345690021A
:1029310007E0FD7F087E7612319A7F0A7E0012340D
:1029410056900212E0FD7F097E7612319A0F7E00C9
:102951001234561231907F0A7E001234569002349E
:10296100E0FD7F0D7E7612319A7F0A7E0012345689
:102971009002147F0E1231957F0A7E001234569018
:102981000214E0FD7F0F7E7612319A7F0A7E0012DB
:102991003456752110E42521FFE43476FE74282590
:1029A10021F582E43402F583E0FD12319A7F0A7E3B
:1029B100001234560521E521C3941F40D80219178E
:101917007F007E76123119AB07EB64AA60030219C8
:10192700DE7F0112311990020EEFF07F021231199A
:101937008F0E7F0312311990024BEFF07F041231A3
:1019470019900247EFF07F051231198F127F0612A7
:101957003119900237EFF07F07123119900236EFF5
:10196700F07F08123119900207EFF07F0912311941
:10197700900212EFF07F0D1231191231068F23A357
:10198700E02FF0900234E03400F07F0F123119900D
:101997000214E4F0A3EFF0E0F8E4F0E8900214F0AA
:1019A7007F0E1231198F23A3E02FF0900214E03439
:1019B70000F0752210E42522FFE43476FE12311977
:1019C70074282522F582E43402F583EFF00522E539
:1019D70022C3941F40DF227F007E76123119EF6405
:1019E700AA6003021AA37F0112311990020EEFF0C9
:1019F7007F021231198F0E7F0312311990024BEFBC
:101A0700F07F04123119900247EFF07F0512311968
:101A17008F127F06123119900237EFF07F071231CC
:101A270019900236EFF07F08123119900207EFF094
:101A37007F09123119900212EFF07F0D123119123E
:101A470031068F23A3E02FF0900234E03400F07FBB
:101A57000F123119900214E4F0A3EFF0E0F8E4F06C
:101A6700E8900214F07F0E1231198F23A3E02FF0B4
:101A7700900214E03400F0752210E42522FFE434CC
:101A870076FE12311974282522F582E43402F58393
:101A9700EFF00522E522C3941F40DF2290020E7467
:101AA70001F0750E0390024B04F0E4900247F075C5
:101AB7001202900237F090023604F0900212744737
:101AC700F0E4900207F0D3940A40037401F07F001A
:101AD7007E761233507DAA12319A7F0A7E00123425
:101AE7005690020EE0FD7F017E7612319A7F0A7EC4
:101AF70000123456AD0E7F027E7612319A7F0A7E2F
:101B07000012345690024BE0FD7F037E7612319A25
:101B17007F0A7E00123456900247E0FD7F047E76EE
:101B270012319A7F0A7E00123456AD127F057E76F7
:101B370012319A7F0A7E00123456900237E0FD7FF9
:101B4700067E7612319A7F0A7E001234569002364C
:101B5700E0FD7F077E7612319A7F0A7E00123456A7
:101B6700900207E0FD7F087E7612319A7F0A7E0099
:101B7700123456900212E0FD7F097E7612319A0FD9
:101B87007E001234561231907F0A7E00123456902E
:101B97000234E0FD7F0D7E7612319A7F0A7E0012B5
:101BA7003456900214A3E0FD7F0E7E7612319A7FA1
:101BB7000A7E00123456900214E0FD7F0F7E7612E3
:101BC700319A7F0A7E00123456752210E42522FFCF
:101BD700E43476FE74282522F582E43402F583E0A6
:101BE700FD12319A7F0A7E001234560522E522C380
:101BF700941F40D87F017E7612311990020EEFF0C4
:101C07007F021231198F0E7F0312311990024BEFA9
:101C1700F07F04123119900247EFF07F0512311956
:101C27008F127F06123119900237EFF07F071231BA
:101C370019900236EFF07F08123119900207EFF082
:101C47007F09123119900212EFF07F0D123119122C
:101C570031068F23A3E02FF0900234E03400F07FA9
:101C67000F123119900214E4F0A3EFF0E0F8E4F05A
:101C7700E8900214F07F0E1231198F23A3E02FF0A2
:101C8700900214E03400F0752210E42522FFE434BA
:101C970076FE12311974282522F582E43402F58381
:0B1CA700EFF00522E522C3941F40DF90
:011CB200220F
:03000000022F1AB2
:0C2F1A00787FE4F6D8FD758167022F6116
:1029C100BB010689828A83E0225002E722BBFE0214
:0929D100E32289828A83E4932247
:1029DA00BB010CE58229F582E5833AF583E02250B2
:1029EA0006E92582F8E622BBFE06E92582F8E222FC
:0D29FA00E58229F582E5833AF583E4932216
:102A0700BB010689828A83F0225002F722BBFE01AE
:022A1700F322A8
:102A1900F8BB010DE58229F582E5833AF583E8F0F3
:102A2900225006E92582C8F622BBFE05E92582C89F
:022A3900F22287
:102A3B00EF8DF0A4A8F0CF8CF0A428CE8DF0A42EAF
:022A4B00FE2269
:102A4D00BC000BBE0029EF8DF084FFADF022E4CC6D
:102A5D00F875F008EF2FFFEE33FEEC33FCEE9DEC36
:102A6D00984005FCEE9DFE0FD5F0E9E4CEFD22ED7C
:102A7D00F8F5F0EE8420D21CFEADF075F008EF2FC6
:102A8D00FFED33FD4007985006D5F0F222C398FDB7
:052A9D000FD5F0EA2254
:102AA200C2D5EC30E709B2D5E4C39DFDE49CFCEE4F
:102AB20030E715B2D5E4C39FFFE49EFE122A4DC350
:102AC200E49DFDE49CFC8003122A4D30D507C3E44B
:062AD2009FFFE49EFE22BE
:0C2AD800A42582F582E5F03583F5832209
:102F2600020003E493A3F8E493A34003F68001F2BE
:102F360008DFF48029E493A3F85407240CC8C333AC
:102F4600C4540F4420C8834004F456800146F6DF7B
:102F5600E4800B0102040810204080903434E47EA3
:102F6600019360BCA3FF543F30E509541FFEE49370
:102F7600A360010ECF54C025E060A840B8E493A337
:102F8600FAE493A3F8E493A3C8C582C8CAC583CA62
:102F9600F0A3C8C582C8CAC583CADFE9DEE780BE1A
:013455000076
:00000001FF
