:03000B0002122FAF
:10122F00C0E0C083C082C0D075D000C007D390008B
:10123F0005E09400900004E09400400CA3E024FF2C
:10124F00F0900004E034FFF0D3900055E09400904C
:10125F000054E09400400CA3E024FFF0900054E011
:10126F0034FFF0D3900007E09400900006E0940064
:10127F00400CA3E024FFF0900006E034FFF0900054
:10128F0087E0FFE4C39F5003E014F0D007D0D0D025
:06129F0082D083D0E03292
:080003001216611209A780FE2C
:0716BB007FC81216C27FC8B0
:1016C200EF600F0000000000000000000000001F9B
:0316D20080EE2285
:10168000AD07AC06ED4C601543E1101216BB121607
:0E169000BB7FC81216C2ED1D70EA1C80E72257
:10169E00E4900060F0A3F090001704F09000560460
:0D16AE00F0E490000CF090000AF0A3F02290
:1009A7009000867401F012169EE4900062F0A3F0A6
:1009B70090004FF0A3F0121029900054E07002A3AA
:1009C700E0706C900054F0A3740AF0D3900055E0E7
:1009D7009400900054E09400400CA3E024FFF090B2
:1009E7000054E034FFF0D3E5299400E52894004053
:1009F70008E529152970021528D390000BE094000B
:100A070090000AE09400400CA3E024FFF090000A55
:100A1700E034FFF0D3900061E09400900060E09430
:100A270000400CA3E024FFF0900060E034FFF0E505
:100A37002945287008F52875290A12078090000AA9
:100A4700E07002A3E06003020AD290000AF0A374E8
:100A570064F0D3900050E0940090004FE094004081
:100A67000CA3E024FFF090004FE034FFF012007673
:100A770090004FE07002A3E0601B900063E0240148
:100A8700FF900062E03400FED390004EE09F90009C
:100A97004DE09E4036900062E0FEA3E0FF90004DDF
:100AA700E0FCA3E0FD6F7002EC6E600B900062EC5F
:100AB700F0A3EDF012147BE4900008F090004C7462
:100AC70032F090004FE4F0A37464F0E53064016005
:100AD700030209C0E539652470030209C08539247A
:100AE70090004C745FF0E539B4011190004EE004BA
:100AF700F0700690004DE004F00209C0E539640289
:100B070060030209C0D390004EE0940090004DE0CE
:100B1700940050030209C0A3E024FFF090004DE0C9
:060B270034FFF00209C0DA
:1016D500E4F5D4E5D4547C4481F5D443A40643D43D
:0216E5004022A1
:1015B000E58954FC4402F58953A4FE53A3FB5389E7
:1015C000FB5389F775AC0653A4EFE4F5ACF58A75C7
:0515D0008C37D28C22D3
:0816E700D2A9D2AC43AD1022E0
:1013DA0053B1FD43B20253B1FE53B2FE43B1384397
:1013EA00B23853917E53927E43916253929D75AC6B
:1013FA000153B5FC75AC035392FCE4F5AC43951468
:09140A0075AC01439214F5AC220B
:1014D800A2AF920075E780E4F5E375E44C75E50585
:1014E80075E64675E6B900AFE25307FE8FE275E58B
:0C14F8000475E64675E6B900F5E7F5E579
:0115040022C4
:10150500A2AF920175E780E4F5E375E44C75E50556
:1015150075E64675E6B900AFE25307FD8FE275E55E
:0C1525000475E64675E6B900F5E7F5E54B
:011531002297
:1015D500A2AF9202C2AFE4F5E38FE48DE275E504B4
:1015E50075E78075E64675E6B900F5E5F5E7A2020B
:0215F50092AFB3
:0115F70022D1
:1015F80075C7D07F641216C275E780E4F5E375E419
:101608004075E50475E21475E64675E6B900F5E53A
:03161800F5E722D1
:1014AA00439C0175AC0753A4F7E4F5AC53A4F75376
:1014BA009CEFC29FD29ED29C43B93053877F439CF4
:0E14CA004043B940759A70759B7043B98022FB
:1000260075AC01539C7FC29FD29EE4F5AC75AC01C2
:10003600439C10F5AC75AC01439C08F5AC75AC0659
:1000460053A4FCF5AC75AC01C29CF5AC75AC014390
:100056009C04F5AC75AC01759A70759B70F5AC7522
:08006600AC01439C10F5AC2233
:101661001215F87F057E001216801213DA1215B0DA
:0F1671001200261214AA1216D51216E7D2AF22B3
:1012A500013900013000012400022E000001210057
:1012B500012200022B0000012300012D0001250061
:1012C5000231000001260002330000023500000251
:0912D500370000012700012A0086
:1007800020B41BE5307063052FE52F7002052EC3E2
:100790007414952FE4952E5051753901801C20B3A7
:1007A00023E5307045052FE52F7002052EC3741424
:1007B000952FE4952E5033753902753001E4F52EEE
:1007C000F52F8026E530B4011A052FE52F700205BC
:1007D0002EC37414952FE4952E500FE4F530752434
:1007E000198007E4F52EF52FF53920F944E522703C
:1007F00067052CE52C7002052BC37414952CE49529
:100800002B5055752201E4F52BF52C90004EE00499
:10081000F0700690004DE004F0D390004EE0940894
:1008200090004DE0940240307402F0A37408F08010
:1008300027E522B4011B052CE52C7002052BC3749F
:1008400014952CE4952B5010E4F522F52BF52C8013
:1008500007E4F52BF52CF52220B52FE5237045058F
:100860002D7414C3952D503C752301E4F52D900093
:100870004EE0940090004DE094004028A3E024FF57
:10088000F090004DE034FFF0801AE523B40110052C
:100890002D7414C3952D500CE4F523F52D8005E43B
:1008A000F52DF523209729E52570560532E53270A0
:1008B000020531C374149532E49531504475250115
:1008C000E4F531F532E52664017036752704803190
:1008D000E525B401250532E53270020531C37414F3
:1008E0009532E49531501AE4F525F531F532E52AD3
:1008F000B5270EE4F52AF5278007E4F531F532F542
:100900002520F829E52670560534E53470020533B4
:10091000C374149534E495335044752601E4F533DB
:10092000F534E525640170367527038031E526B47A
:1009300001250534E53470020533C374149534E49D
:100940009533501AE4F533F534F526E52AB5270E2C
:10095000E4F52AF5278007E4F533F534F526E52597
:1009600064016005E526B4013DE52A652760378509
:10097000272AE527B4030F90004EE004F07027907B
:10098000004DE004F022E527B4041BD390004EE0B4
:10099000940090004DE09400400CA3E024FFF09000
:0709A000004DE034FFF022DE
:1012DE004100C9004100CB004100CA004100CC00D2
:0300230002114186
:10114100C0E0C083C082C0D075D000C007C0AC75FC
:10115100AC00309932C2999000CCE0FF9000CAE017
:10116100B50704C20380209000CCE024A8F582E4F6
:101171003400F583E0F599D2039000CCE004F0E06F
:10118100C394204002E4F0309820C2989000C8E057
:101191002488F582E43400F583E599F09000C8E0F5
:1011A10004F0E0D394204002E4F0D0ACD007D0D0DA
:0711B100D082D083D0E032B0
:10139B00200312E49000CCF09000CA04F09000A857
:1013AB00EFF0D299229000CAE0FE24A8F582E43433
:1013BB0000F583EFF00EEEC394204002E4FE9000A4
:0E13CB00CCE06E60F9C2AC9000CAEEF0D2AC7D
:0113D90022F1
:10000E00120D8FFF600C12139B740129F9E43AFA5A
:03001E0080EE224F
:06161B008B088A09890A10
:10162100E4FCECC39D5015AB08AA09A90A8C82758C
:0C1631008300120DA8FF12139B0C80E632
:01163D00228A
:10155E00D29512161B9000067403F0A374E8F07F68
:10156E00641216C230030FD3900007E0940090006F
:09157E0006E0940050EEC2952233
:1012EE004100ED004100EF004100EE004100F00032
:030073000211B8BF
:1011B800C0E0C083C082C0D075D000C007C0AC7585
:1011C800AC01309932C2999000F0E0FF9000EEE057
:1011D800B50704C20480209000F0E024F1F582E411
:1011E8003400F583E0F599D2049000F0E004F0E0D3
:1011F800C394204002E4F0309820C2989000EDE0BB
:1012080024CDF582E43400F583E599F09000EDE013
:1012180004F0E0D394204002E4F0D0ACD007D0D062
:07122800D082D083D0E03238
:1012FF00200418E49000F0F09000EE04F09000F15C
:10130F00EFF075AC01D299E4F5AC229000EEE090CD
:10131F00011BF0E024F1F582E43400F583EFF09047
:10132F00011BE004F0E0C394204002E4F09000F0D1
:10133F00E0FF90011BE0FE6F60F353ADEF9000EE06
:05134F00EEF043AD10BB
:011354002276
:06163E008B158A168917C6
:10164400E4FCECC39D5015AB15AA16A9178C827542
:0C1654008300120DA8FF1212FF0C80E6AC
:011660002267
:10158700D29612163E9000067403F0A374E8F07F1B
:10159700641216C230040FD3900007E09400900045
:0915A70006E0940050EEC2962209
:060F6B008B118A128913AC
:100F710043D4209000877464F053D4F7E5D420E380
:100F810009900087E070F57F012253D4DF43D40438
:100F9100EF54FEF5D29000877464F053D4F7E5D492
:100FA10020E309900087E070F57F02228DD2900046
:100FB100877464F053D4F7E5D420E309900087E007
:100FC10070F57F0322E4FFEFC395145038E5141444
:100FD100B5070553D4FB800343D404AB11AA12A96E
:100FE100138F82758300120DA8F5D2900087746467
:100FF100F053D4F7E5D420E309900087E070F57F42
:1010010006220F80C243D410900087744CF053D451
:10101100F7E5D430E409900087E070F57F072253AB
:07102100D4EF53D4F77F0068
:0110280022A5
:060E94008B0B8A0C890D96
:100E9A0043D4209000877464F053D4F7E5D420E358
:100EAA0009900087E070F57F012253D4DF43D40410
:100EBA00EF54FEF5D29000877464F053D4F7E5D46A
:100ECA0020E309900087E070F57F02228CD290001F
:100EDA00877464F053D4F7E5D420E309900087E0DF
:100EEA0070F57F03228DD29000877464F053D4F793
:100EFA00E5D420E309900087E070F57F0322E4FF40
:100F0A00EFC3950E5038E50E14B5070553D4FB8090
:100F1A000343D404AB0BAA0CA90D8F82758300126C
:100F2A000DA8F5D29000877464F053D4F7E5D42065
:100F3A00E309900087E070F57F06220F80C243D450
:100F4A0010900087744CF053D4F7E5D430E409903C
:100F5A000087E070F57F072253D4EF53D4F77F0060
:010F6A002264
:080C7B008F088B0B8A0C890D18
:100C830043D4209000877464F053D4F7E5D420E371
:100C930009900087E070F57F012253D4DF43D40429
:100CA300E50854FEF5D29000877464F053D4F7E559
:100CB300D420E309900087E070F57F02228CD29064
:100CC30000877464F053D4F7E5D420E309900087D8
:100CD300E070F57F03228DD29000877464F053D4C3
:100CE300F7E5D420E309900087E070F57F03224302
:100CF300D4209000877464F053D4F7E5D420E3093B
:100D0300900087E070F57F042253D4DFE5084401A7
:100D1300F5D29000877464F053D4F7E5D420E30947
:100D2300900087E070F57F0522E4FFEFC3950E5036
:100D330038E50E14B5070553D4FB800343D4049060
:100D430000877405F053D4F7E5D420E309900087B6
:100D5300E070F57F0622AB0BAA0CA90D8F82758379
:100D630000E5D2120DE70F80C243D41090008774C0
:100D730064F053D4F7E5D430E409900087E070F5CC
:0B0D83007F072253D4EF53D4F77F000A
:010D8E002242
:101355007C437C007C367C0D0A007C347C317C32FD
:10136500302D322D2347003000236C0023720023DB
:1013750075002364007C317C377C0D0A00216C00EC
:101385002172002175002164007C347C317C313070
:061395002D302D2347005E
:0D0B2D007B017A007964900016E0FD7C00E9
:0A0B3A008B088A09890A8C0B8D0CC8
:100B4400E4900111F0A3F0900115F0A3F0A3F0A339
:100B5400F0E50C450B70157430120DD5AB08AA09DD
:100B6400A90A900001E4120DE77F0122900119E522
:100B74000BF0A3E50CF0C3E50B9400502190011792
:100B8400E4F0A304F0C3E4950CF50CE4950BF50B29
:100B9400900116E004F07006900115E004F0900155
:100BA40019E0FEA3E0FF4E601F900116E004F07010
:100BB40006900115E004F07C007D0A120E5E90019F
:100BC40019EEF0A3EFF080D6E4900111F0A3F090B9
:100BD4000115E0FEA3E0FFC3900112E09FEE6480E4
:100BE400F8900111E06480985061AE0BAF0C7C006A
:100BF4007D0A120E09900113ECF0A3EDF0FBAE0B8D
:100C0400AF0C7C007D0A120E098E0B8F0CAF03EF24
:100C14002430FF900112E02401FD900111E0340022
:100C2400FCC3900116E09DFD900115E09CAB08AA61
:100C340009A90A8D82F583EF120DE7900112E004F1
:100C4400F07006900111E004F08084900117E070C8
:100C540002A3E0600BAB08AA09A90A742D120DD5F2
:100C6400AB08AA09A90A900115E0FEA3E0FFF582EA
:060C74008E83E4120DE77F
:010C7A002257
:1000760090004CE004F0E0FFD3940550030203FA2D
:1000860074649F5006E4F0900008F0900017E0FFBB
:10009600900008E0FE6F70030203FAE490004CF053
:1000A600900009E0704574562EF582E43400F5831D
:1000B600E0900016F0D394287BFF7A1379557D03E0
:1000C60012155E120B2D900053EFF0FD7B017A00A6
:1000D600796412155E7BFF7A1379597D0512155ED8
:1000E6009000097401F090004CF022900009E0FFA6
:1000F600B401047402F022EF640260030203DB9091
:1001060000097403F0900008E02456F582E43400F8
:10011600F583E0900016F0D39428500302027C7B0E
:10012600FF7A1379557D0312155E120B2D9000533D
:10013600EFF0FD7B017A00796412155E7BFF7A137E
:10014600795F7D0C12155E90004DA3E0900016F0CD
:10015600900008E0240CF582E43400F583E0701783
:10016600900016E0C3940A503F7BFF7A13796C7DAA
:100176000112155E020225900008E0240CF582E4C7
:100186003400F583E0640170227BFF7A13796E7D7B
:100196000212155E900016E0C3940A500B7BFF7A9C
:1001A60013796C7D0112155E020225900008E02489
:1001B6000CF582E43400F583E06402703190001699
:1001C600E0C3940A500B7BFF7A13796C7D011215FC
:1001D6005E120B2D900053EFF0FD7B017A007964DF
:1001E60012155E7BFF7A1379717D0202027690000A
:1001F60008E0240CF582E43400F583E064037030F3
:100206007BFF7A1379747D0212155E900016E0C3A7
:10021600940A500B7BFF7A13796C7D0112155E12DE
:100226000B2D900053EFF0FD7B017A00796480403E
:10023600900008E0240CF582E43400F583E06404C1
:1002460070317BFF7A1379777D0212155E90001666
:10025600E0C3940A500B7BFF7A13796C7D0112156B
:100266005E120B2D900053EFF0FD7B017A0079644E
:1002760012155E0203D07BFF7A1379557D031215A2
:100286005E120B2D900053EFF0FD7B017A0079642E
:1002960012155E7BFF7A13795F7D0C12155E900056
:1002A6004DA3E0900016F0900008E0240CF582E4DF
:1002B6003400F583E07017900016E0C3940A503FAF
:1002C6007BFF7A13796C7D0112155E02037C900028
:1002D60008E0240CF582E43400F583E06401702222
:1002E6007BFF7A1379827D0212155E900016E0C3B9
:1002F600940A500B7BFF7A13796C7D0112155E020E
:10030600037C900008E0240CF582E43400F583E0D9
:1003160064027031900016E0C3940A500B7BFF7A9A
:1003260013796C7D0112155E120B2D900053EFF0C0
:10033600FD7B017A00796412155E7BFF7A1379855D
:100346007D020203CD900008E0240CF582E434001F
:10035600F583E0640370307BFF7A1379887D02129F
:10036600155E900016E0C3940A500B7BFF7A137952
:100376006C7D0112155E120B2D900053EFF0FD7B84
:10038600017A0079648040900008E0240CF582E44C
:100396003400F583E0640470317BFF7A13798B7D3A
:1003A6000212155E900016E0C3940A500B7BFF7A8A
:1003B60013796C7D0112155E120B2D900053EFF030
:1003C600FD7B017A00796412155E7BFF7A13797AD8
:1003D6007D0702155E900009E0B40313E4F0900077
:1003E60017E0FF900008E0C39F5009E004F022E404
:0503F600900009F02257
:1003FB0090004CE004F0E0FFD39404500302077F1D
:10040B0074649F5006E4F0900008F0900017E0FF32
:10041B00900008E0FE6F700302077FE490004CF041
:10042B00900009E0704574562EF582E43400F58394
:10043B00E0900016F0D394287BFF7A1379557D0357
:10044B00121587120B2D900053EFF0FD7B017A00F4
:10045B0079641215877BFF7A1379597D05121587FD
:10046B009000097401F090004CF022900009E0FF1D
:10047B00B401047402F022EF64026003020760907F
:10048B0000097403F0900008E02456F582E4340070
:10049B00F583E0900016F0D3942850030206017BFD
:1004AB00FF7A1379557D03121587120B2D9000538C
:1004BB00EFF0FD7B017A0079641215877BFF7A13CD
:1004CB00798E7D0C12158790004DA3E0900016F0ED
:1004DB00900008E0240CF582E43400F583E07017FB
:1004EB00900016E0C3940A503F7BFF7A13796C7D22
:1004FB00011215870205AA900008E0240CF582E48E
:10050B003400F583E0640170227BFF7A13796E7DF2
:10051B0002121587900016E0C3940A500B7BFF7AEA
:10052B0013796C7D011215870205AA900008E0244F
:10053B000CF582E43400F583E06402703190001610
:10054B00E0C3940A500B7BFF7A13796C7D01121573
:10055B0087120B2D900053EFF0FD7B017A0079642D
:10056B001215877BFF7A1379717D020205FB9000D0
:10057B0008E0240CF582E43400F583E0640370306A
:10058B007BFF7A1379747D02121587900016E0C3F6
:10059B00940A500B7BFF7A13796C7D01121587122D
:1005AB000B2D900053EFF0FD7B017A0079648040B6
:1005BB00900008E0240CF582E43400F583E0640439
:1005CB0070317BFF7A1379777D02121587900016B5
:1005DB00E0C3940A500B7BFF7A13796C7D011215E3
:1005EB0087120B2D900053EFF0FD7B017A0079649D
:1005FB001215870207557BFF7A1379557D03121568
:10060B0087120B2D900053EFF0FD7B017A0079647C
:10061B001215877BFF7A13798E7D0C12158790004C
:10062B004DA3E0900016F0900008E0240CF582E456
:10063B003400F583E07017900016E0C3940A503F26
:10064B007BFF7A13796C7D011215870207019000ED
:10065B0008E0240CF582E43400F583E06401702299
:10066B007BFF7A1379827D02121587900016E0C307
:10067B00940A500B7BFF7A13796C7D01121587025C
:10068B000701900008E0240CF582E43400F583E0C8
:10069B0064027031900016E0C3940A500B7BFF7A12
:1006AB0013796C7D01121587120B2D900053EFF00F
:1006BB00FD7B017A0079641215877BFF7A137985AC
:1006CB007D02020752900008E0240CF582E434000E
:1006DB00F583E0640370307BFF7A1379887D021217
:1006EB001587900016E0C3940A500B7BFF7A1379A1
:1006FB006C7D01121587120B2D900053EFF0FD7BD3
:10070B00017A0079648040900008E0240CF582E4C3
:10071B003400F583E0640470317BFF7A13798B7DB1
:10072B0002121587900016E0C3940A500B7BFF7AD8
:10073B0013796C7D01121587120B2D900053EFF07E
:10074B00FD7B017A0079641215877BFF7A13797A26
:10075B007D07021587900009E0B40313E4F09000C5
:10076B0017E0FF900008E0C39F5009E004F022E47B
:05077B00900009F022CE
:04141300AD07AC066F
:10141700A2AF9205C2AF75E78075E5018CE38DE455
:1014270075E64675E6B90000000000000000000000
:0F14370000000000E4F5E5F5E7A20592AFAFE293
:011446002283
:04144700AB07AA063F
:10144B00A2AF9206C2AF75E78075E5028AE38BE423
:10145B008DE275E64675E6B900000000000000005D
:0F146B00000000000000E4F5E5F5E7A20692AFEF
:01147A00224F
:10153200A2AF9207C2AF75E78075E5038EE3E4F5CB
:10154200E475E64675E6B900000000000000000000
:0B155200000000F5E5F5E7A20792AFEE
:01155D00226B
:10147B0090001874AAF090004DE0FEA3E0900019C4
:10148B00F0EEA3F07B017A007918750E05E4FDFCF4
:0F149B007FA0120E947F0A7E0012168002102985
:101029007B017A007918750E05E4FDFC7FA1120C8D
:101039007B900018E0FFBFAA0280197B017A007932
:1010490018750E05E4FDFC7FA1120C7B900018E0D9
:10105900FFBFAA2990001AE0FF90004DE4F0A3EF2A
:10106900F0E0F8E4F0E890004DF0900019E0FF900E
:10107900004EE02FF090004DE03400F02290004D3A
:10108900E4F0A374FAF090001874AAF090004DE00F
:10109900FEA3E0900019F0EEA3F07B017A00791825
:0B10A900750E05E4FDFC7FA0120E9404
:0110B4002219
:030000000210B536
:0C10B500787FE4F6D8FD7581390210FC4C
:100D8F00BB010689828A83E0225002E722BBFE0262
:090D9F00E32289828A83E4932295
:100DA800BB010CE58229F582E5833AF583E0225000
:100DB80006E92582F8E622BBFE06E92582F8E2224A
:0D0DC800E58229F582E5833AF583E4932264
:100DD500BB010689828A83F0225002F722BBFE01FD
:020DE500F322F7
:100DE700F8BB010DE58229F582E5833AF583E8F042
:100DF700225006E92582C8F622BBFE05E92582C8EE
:020E0700F222D5
:100E0900BC000BBE0029EF8DF084FFADF022E4CCCD
:100E1900F875F008EF2FFFEE33FEEC33FCEE9DEC96
:100E2900984005FCEE9DFE0FD5F0E9E4CEFD22EDDC
:100E3900F8F5F0EE8420D21CFEADF075F008EF2F26
:100E4900FFED33FD4007985006D5F0F222C398FD17
:050E59000FD5F0EA22B4
:100E5E00C2D5EC30E709B2D5E4C39DFDE49CFCEEAF
:100E6E0030E715B2D5E4C39FFFE49EFE120E09C310
:100E7E00E49DFDE49CFC8003120E0930D507C3E40B
:060E8E009FFFE49EFE221E
:1010C100020003E493A3F8E493A34003F68001F242
:1010D10008DFF48029E493A3F85407240CC8C33330
:1010E100C4540F4420C8834004F456800146F6DFFF
:1010F100E4800B01020408102040809012A5E47ED8
:10110100019360BCA3FF543F30E509541FFEE493F3
:10111100A360010ECF54C025E060A840B8E493A3BA
:10112100FAE493A3F8E493A3C8C582C8CAC583CAE5
:10113100F0A3C8C582C8CAC583CADFE9DEE780BE9D
:0112FE0000EF
:00000001FF
